:020000040800F2
:10000000103500209D0100084D4F0008AB48000846
:10001000494F0008AB0900085D79000800000000A6
:10002000000000000000000000000000CD530008A8
:100030006D0F00080000000023520008CF53000895
:10004000B7010008B7010008B7010008B7010008B0
:10005000B7010008B7010008B7010008B7010008A0
:10006000B7010008B7010008B7010008B701000890
:10007000B7010008B7010008B7010008B701000880
:10008000B7010008B7010008B7010008B701000870
:10009000B1090008C1090008B7010008B70100084C
:1000A000B7010008B7010008B7010008B701000850
:1000B000B7010008A9540008B7010008B7010008FB
:1000C000B7010008B7010008B7010008B701000830
:1000D000B7010008B7010008B7010008B701000820
:1000E000B7010008B7010008B7010008B701000810
:1000F000B7010008B7010008B7010008B701000800
:10010000B7010008B7010008B7010008B7010008EF
:10011000B7010008B7010008B7010008B7010008DF
:10012000590A0008B7010008290E0008B7010008A5
:10013000B70100080000000000000000B70100083F
:10014000B7010008B7010008B7010008514F0008C7
:10015000B7010008B7010008B7010008B70100089F
:10016000B7010008B7010008B7010008B70100088F
:10017000B7010008B70100080000000000000000FF
:10018000B7010008B7010008DFF80CD000F0D4FA7E
:1001900000480047218300081035002006488047AA
:1001A00006480047FEE7FEE7FEE7FEE7FEE7FEE75C
:1001B000FEE7FEE7FEE7FEE78D5400088901000830
:1001C0002DE9F05F0546002092469B46884606468C
:1001D000814640241BE0284641464746224600F01F
:1001E000CCF953465A46C01A914110D311461846CD
:1001F000224600F0B3F92D1A67EB01084F4622465C
:100200000120002100F0AAF917EB00094E41201E41
:10021000A4F10104DFDC484631462A464346BDE8E6
:10022000F09F40EA01039B0703D009E008C9121FB1
:1002300008C0042AFAD203E011F8013B00F8013BA0
:10024000521EF9D27047D2B201E000F8012B491ECC
:10025000FBD270470022F6E710B513460A46044663
:100260001946FFF7F0FF204610BD2DE9FE4F8046EE
:1002700081EA0300C00F0C46009021F0004123F0FA
:100280000045B8EB0200A94105D240462146904600
:100290001C460B46024623F00040104347D0270D72
:1002A000C7F30A00C3F30A510290401A0190402894
:1002B0006BDAC3F3130040F4801B0098924620B120
:1002C0000023D2EB030A63EB0B0B01985946C0F1F4
:1002D0004002504600F042F906460D465046594647
:1002E000019A00F05AF910EB08006141002487EAF6
:1002F000115284EAE7731A4340D0009A62B3019A1C
:10030000012A4FEA075215DC001B61EB02014FF096
:10031000004202EA0752CDE90042001C41F580117B
:1003200032462B4600F0BAF903B0BDE8F08F4046E4
:100330002146F9E7001B61EB0201001C41F5801327
:1003400000185B412018A2F5001747EB030140EAB3
:10035000D570B6196D4111E06D084FEA360645EAD1
:10036000C0754FEA0752001B61EB0201001C41F50A
:10037000801149084FEA30000019514132462B469E
:1003800003B0BDE8F04F00F07AB9009801224000B8
:100390000023D0EB020263EBE073009821464FEAA2
:1003A000E074B8EB000061EB0401E9E783F000437F
:1003B0005BE781F0004158E72DE9FE4F81EA030435
:1003C00004F0004421F0004100944FF0000B23F0B2
:1003D000004350EA01045ED052EA03045BD0C3F349
:1003E0000A54C1F30A552C44A4F2F3340194A0FB3F
:1003F0000254C1F3130141F48011C3F3130343F416
:10040000801301FB024400FB034E840A970A44EA6E
:10041000815447EA8357A4FB076802958D0A05FBC0
:1004200007854FEA932C04FB0C542705029D4FEAE5
:10043000065847EA1637B5EB08056EEB070C870E32
:10044000920E47EA811742EA8312A7FB0201B6EB3C
:100450000B0164EB00042B0D43EA0C335E1844EBF4
:100460001C50DA465146E7FB0201C5F313044FEA7C
:100470000B3343EA14534FEA0432019C43EA060368
:10048000A4F10C040294009CCDE900B400F006F93C
:1004900003B0BDE8F08F00200146F9E700F000420C
:1004A00030F000400AD0C10D01F56071C0F31600B4
:1004B00042EA0151C208400711437047002001463B
:1004C0007047000030B5041E71F1000404DB4FF0EA
:1004D0000044404264EB0101141E73F1000405DB8B
:1004E0001C464FF00043524263EB04038B4208BFAB
:1004F000824230BD30B5041E71F1000404DB4FF0C0
:100500000044404264EB0101141E73F1000405DB5A
:100510001C464FF00043524263EB0403994208BF6C
:10052000904230BD01F0004330B421F0004150EA68
:10053000010206D00A0DA2F56072C1F31301002A70
:1005400002DC30BC00207047440F44EAC104C10003
:10055000E01830BC00EBC25000F031B8202A04DBB8
:10056000203A00FA02F1002070479140C2F12003C6
:1005700020FA03F3194390407047202A04DB203A05
:1005800021FA02F00021704721FA02F3D040C2F1B3
:1005900020029140084319467047202A06DBCB17FA
:1005A000203A41FA02F043EAE07306E041FA02F32E
:1005B000D040C2F1200291400843194670470029FB
:1005C000A8BF7047401C490008BF20F001007047D9
:1005D00010B4B0FA80FC00FA0CF050EA010404BF39
:1005E00010BC704749B1CCF1200421FA04F411FA8F
:1005F0000CF118BF012121430843A3EB0C01CB1DD3
:100600004FEA00614FEA102042BF002010BC704743
:1006100000EBC35010440029A4BF10BC7047401C1D
:10062000490008BF20F0010010BC7047F0B400F092
:10063000004221F0004120F00040CE0DC30DC1F377
:10064000160141F40001C0F316004C42154640F477
:100650000000761E09E010EB440002D582F0004253
:1006600040428842F7D840005B1EB342F9DA18B125
:10067000F0BC0021FFF7ACBF2846F0BC704710B5B6
:10068000141E73F1000408DA401C41F100019218B5
:100690005B411A4301D120F0010010BD2DE9F04D5E
:1006A00092469B4611B1B1FA81F202E0B0FA80F2B3
:1006B00020329046FFF752FF04460F4640EA0A00F8
:1006C00041EA0B0153465A46084313D0114653EAF8
:1006D000010019D0C8F140025046FFF74EFF054611
:1006E0000E46504659464246FFF738FF084305D0AC
:1006F000012004E020463946BDE8F08D0020054386
:1007000046EAE0762C4337430A986305E40AA0EBF7
:1007100008000022FD0A44EA47540A3002D50020AE
:100720000146E9E7010510196941DDE908450019AD
:100730006941BDE8F04DA2E7064C074D06E0E068D0
:1007400040F0010394E8070098471034AC42F6D318
:10075000FFF71EFD5C8800087C88000870B58C18C7
:1007600010F8015B15F0070301D110F8013B2A11C5
:1007700006D110F8012B03E010F8016B01F8016BB2
:100780005B1EF9D12B0705D40023521E0DD401F8AE
:10079000013BFAE710F8013BCB1A921C03E013F877
:1007A000015B01F8015B521EF9D5A142D8D30020AC
:1007B00070BD000055494A6822F440324A604A68D8
:1007C00043681A434A600268526822F480720368E0
:1007D0005A6002685368026943EA022203685A6059
:1007E0000268526822F0407203685A6002685268D8
:1007F00083681A4303685A600268926822F40062B0
:1008000003689A6002689268C3681A4303689A6032
:100810003F4B826A9A4218D00268926822F0706256
:1008200003689A6002689268836A1A4303689A6050
:100830000268926822F0405203689A6002689268E7
:10084000C36A1A4303689A600BE00268926822F058
:10085000706203689A600268926822F040520368EE
:100860009A600268926822F0020203689A60026845
:100870009368027E43EA420203689A602022125C77
:10088000A2B10268526842F4006203685A600268CA
:10089000526822F4604203685A6002685368426AF0
:1008A000521E43EA423203685A6005E00268526809
:1008B00022F4006203685A600268D26A22F470026D
:1008C0000368DA620268D36A828B521E43EA0252DC
:1008D0000368DA620268926822F4007203689A6020
:1008E0000268936890F8302043EA422203689A60D5
:1008F0000268926822F4806203689A6002689368D2
:10090000426943EA822203689A60704700230140EB
:100910000100000F70B50546AC6B206C00F0500074
:1009200050BB206C40F4007020642068806800F0A8
:100930004050E8B9207ED8B92068C06A00F4700041
:1009400020B12068806800F4806088B92068406821
:1009500020F0200021684860206C20F48070206422
:10096000206C00F4805018B9206C40F00100206425
:10097000204600F0A3FC03E0A06BC16C284688472A
:1009800070BD70B50546AC6B40202064606C40F0D3
:1009900004006064204600F093FC70BD70B504460E
:1009A000A56B284600F08BFC70BD00BFFEE7000081
:1009B00010B5024801F030F810BD000034040020EA
:1009C00010B5024801F028F810BD000034040020E2
:1009D0000346042B15D007DC7BB1012B0ED0022B74
:1009E0000DD0032B12D10BE0202B0BD0212B0AD0E2
:1009F000222B09D0232B09D107E008E007E006E00D
:100A000005E004E003E002E001E000E000BF00BF19
:100A1000002070470020704710B5002204490548A7
:100A200005F061F80449034805F056F8002010BDB0
:100A3000CC0E0020E80500208C0E002070B5044686
:100A40000D462146034805F047F8024805F020F816
:100A5000002070BDE805002010B501221021D94802
:100A600001F03CFED848006800F0200008B1D748EB
:100A700001E0D6480C38044620886188084400EE1E
:100A8000100AF8EEC00A9FEDD20AB6EE001A10EE78
:100A9000810ADFEDD00A20EE200ACF4880ED080A57
:100AA000A088E188084400EE100AF8EEC00A9FED25
:100AB000C80AB6EE001A10EE810ADFEDC60A20EE73
:100AC000200AC54880ED090A90ED080AB1EE400AF7
:100AD000D0ED090A30EE600A80ED0A0A20896189AA
:100AE000084400EE100AB8EEC00AF6EE000A20EE46
:100AF000200ADFEDBA0A20EE200AB74880ED020A8C
:100B000090ED020ADFEDB60A20EE200AB54880ED2E
:100B1000030AB14890ED020ADFEDB10A20EE200A87
:100B2000B14880ED030AAF4890ED030ADFEDAF0A4C
:100B300020EE200A80ED020AAB4890ED030ADFEDBB
:100B4000AB0A20EE200A80ED020AA348203007F00D
:100B500037FBA74880ED000AC0ED010A9E48D0EDA2
:100B6000000AB0EE600AA24807F092FDA14880EDAD
:100B7000000AC0ED010A90ED011AF0EE410A90ED75
:100B8000001AB0EE410A06F09BFF934880ED050A7B
:100B90009748D0ED000A60EEA00A90ED011AD0ED62
:100BA000011A41EE210AB0EE600A06F04DFF8A48B4
:100BB00080ED030A904800888F49498840EA014047
:100BC000C0F312208D490860084690ED000AB8EE87
:100BD000400ADFED8B0A20EE200A7F4880ED060AEE
:100BE000D0ED060AB0EE600A864807F0C7FD8548DA
:100BF00090ED020A784880ED010A90ED061A90F80F
:100C00003C0000EE900AF8EE600A61EE200AB0EEB9
:100C1000600ADFED7D0A06F0BFFE6F4880ED000A36
:100C20007448D0ED000AF1EE600AB0EE600A6D483B
:100C300007F05FFD7548D0ED060A6E4890ED011A89
:100C400070EEC10AB0EE600A674807F052FD7048C6
:100C5000D0ED060A604890ED011A70EEC10AB0EEC0
:100C6000600A6A4807F045FD5B48D0ED070A654811
:100C700090ED001A70EEC10AB0EE600A644807F009
:100C800038FD594890ED060A624880ED010A554842
:100C900090ED060A5F4880ED000A524890ED060A82
:100CA0004D4880ED0D0A504890ED060A4A4880ED07
:100CB0000E0AD0ED000AB0EE600A564807F0FCFAC2
:100CC000554880ED000AC0ED010A07F0C9FA534803
:100CD00080ED000AC0ED010A80ED021AD0ED010A94
:100CE0004F48C06AC0F34F0000EE100AB8EE400A49
:100CF00020EE800A384890ED021AC0EE010A4848FA
:100D0000C06AC0F34F0000EE100AB8EE400A30EEA1
:100D1000800ABCEEC00A10EE100A414948633F4801
:100D2000D0ED020A0846C06AC0F34F0000EE100A78
:100D3000B8EE400A20EE800A274890ED021AC0EE75
:100D4000010A0846C06AC0F34F0000EE100AB8EE70
:100D5000400A30EE800ABCEEC00A10EE100A88632A
:100D60002E48D0ED000A0846C06AC0F34F0000EEDE
:100D7000100AB8EE400A20EE800A174890ED021AD9
:100D8000C0EE010A0846C06AC0F34F0000EE100A28
:100D9000B8EE400A30EE800ABCEEC00A10EE100A2F
:100DA000C8633223022214491E4802F097FF302004
:100DB00005490831086000221021024801F08EFC2C
:100DC00010BD00000008024000640240EC02002058
:100DD000000000454108843CF40100206D0B773C85
:100DE0003ACD133F3402002054020020CDCC4C3FBA
:100DF0002800002030000020480000200C000020C7
:100E0000DB0F4937B4020020DB0FC9407402002019
:100E1000940200201800002020000020E80100209B
:100E2000000001407004002010B5024801F062F992
:100E300010BD0000C80400200146087810381823AF
:100E4000B0FBF3F20848805CC865032A05D908683E
:100E50006FF30900001D886503E008686FF309005F
:100E60008865886D704700003C88000801460020B6
:100E70008A6A8B69CBB932B1012A0DD0022A03D01C
:100E8000032A10D10EE000BFCB6A03F08073B3F1E8
:100E9000807F00D1012007E0CB6AB3F1C07F00D191
:100EA000012001E000E000BF34E08B69B3F5005F92
:100EB0001AD132B1012A07D0022A03D0032A11D154
:100EC0000AE000BF01200EE0CB6A03F08073B3F1AB
:100ED000807F00D1012006E0CB6AB3F1C07F00D152
:100EE000012000E000BF15E032B1012A05D0022A3E
:100EF00004D0032A0CD103E000BF00BF012008E0AA
:100F0000CB6A03F08073B3F1807F00D1012000E051
:100F100000BF00BF704730B50468246824F4802403
:100F200005682C60046863608468402C04D1046800
:100F3000A2600468E16003E00468A1600468E26004
:100F400030BD00000748006840F080700549086027
:100F50000548006840F0010003490860002048602F
:100F600070470000FCED00E0001000E070477047A3
:100F700070B50A480468001D0568001D0668344401
:100F800054B108220649204603F091FC042204498A
:100F90001031284603F08BFC70BD0000107AFF1F53
:100FA0008E00002010B502460B4600BF92F83C00B0
:100FB000012801D1022010BD012082F83C0000BFB1
:100FC0000F49486820F01F00486048681C682043AB
:100FD0004860486820F44040486048685C682043A6
:100FE0004860486820F47060486048689C68204306
:100FF000486000BF002082F83C0000BF00BFDAE775
:1010000000230140F8B504460E4617460020009024
:1010100000BF94F83C00012801D10220F8BD012056
:1010200084F83C0000BF2068806800F00100A0B98F
:101030002068806840F001002168886036480068B8
:101040003649B0FBF1F000EB4000009002E0009860
:10105000401E009000980028F9D12068806800F0B8
:101060000100002855D0206C40F20161884340F413
:10107000807020642068406800F4806028B1206C93
:1010800020F4005040F480502064206C00F4805024
:10109000B0F5805F04D1606C20F00600606401E070
:1010A0000020606400BF002084F83C0000BF1C48A2
:1010B000A16BC8631B48A16B08641B48A16BC86483
:1010C0006FF00200216808602068406840F080608E
:1010D00021684860154D94F8300020B1686840F4EC
:1010E0000050686003E0686820F4005068603B4688
:1010F000324605F10801A06B01F092F92068806882
:1011000000F0405028B92068806840F08040216895
:101110008860002082E70000C400002040420F00E9
:10112000150900089D0900088309000800230140F3
:1011300038B502460020009000BF92F83C0001281C
:1011400001D1022038BD012082F83C0000BF0868B0
:10115000092816D91068C0680C780A3C04EB4405CD
:101160000724AC40A0431468E0600C780A3C04EB10
:1011700044048868A0401468E46820431468E06070
:1011800013E0106800690C7804EB44050724AC40B8
:10119000A043146820610C7804EB44048868A040E4
:1011A000146824692043146820614868072817D20E
:1011B0001068406B0C79641E04EB84051F24AC405E
:1011C000A04314686063088880B20C79641E04EB45
:1011D0008404A0401468646B20431468606331E0A9
:1011E00048680D2817D21068006B0C79E41F04EBD7
:1011F00084051F24AC40A04314682063088880B293
:101200000C79E41F04EB8404A0401468246B204391
:101210001468206316E01068C06A0C790D3C04EB7A
:1012200084051F24AC40A0431468E062088880B2A3
:101230000C790D3C04EB8404A0401468E46A20435C
:101240001468E062194B1A4C1068A04206D1086875
:10125000122803D1586840F480005860144C10687C
:10126000A0421CD10868102802D00868112816D1A5
:10127000586840F400005860086810280FD10D48E5
:1012800000680D4CB0FBF4F000EB800040000090D3
:1012900002E00098401E009000980028F9D100BF9D
:1012A000002082F83C0000BF00BF4BE70023014054
:1012B00000200140C400002040420F0070477047EA
:1012C0007047000070B5044600250CB9012070BDC0
:1012D0001549A06A884200D000BF206C30B9204672
:1012E00000F024F80020606484F83C00206C00F0DA
:1012F000100088B9206C20F4885040F0020020646F
:101300002046FFF757FA00206064206C20F00200AE
:1013100040F00100206400E0012500BF002084F8B7
:101320003C0000BF2846D2E70100000F10B586B090
:101330000446142101A8FEF78DFF59492068884210
:1013400063D100BF002000905648006840F48070D0
:10135000544908600846006800F48070009000BF9F
:1013600000BF00BF002000904E481438006840F0D5
:1013700004004C49143908600846006800F0040075
:10138000009000BF00BF00BF00200090084600682A
:1013900040F0020008600846006800F0020000907B
:1013A00000BF00BF042001900320029000200390A2
:1013B00001A93D4801F092F803200190029000201D
:1013C000039001A9394801F089F839483949086082
:1013D00000204860002137488160C1604FF480617F
:1013E000016189004161890081618911C1614902FE
:1013F00001620021416200F09DFF08B1FFF7B7FDD7
:1014000000BF2C48A063846347E02B4920688842D2
:1014100043D100BF002000902248006840F40070D3
:10142000204908600846006800F40070009000BF82
:1014300000BF00BF002000901A481438006840F038
:1014400004001849143908600846006800F00400D8
:10145000009000BF00BF00BF002000900846006859
:1014600040F0020008600846006800F002000090AA
:1014700000BF00BF042001900320029000200390D1
:1014800001A9094801F02AF80320019002900020E8
:10149000039001A9054801F021F806B010BD000035
:1014A000002001404438024000080240000402408D
:1014B00010640240D40300200021014008B5014619
:1014C0000020009000BF91F83C00012801D10220CB
:1014D00008BD012081F83C0000BF0868806800F06A
:1014E0000100A0B90868806840F001000B689860AE
:1014F0003B4800683B4BB0FBF3F000EB4000009032
:1015000002E00098401E009000980028F9D1086879
:10151000806800F0010000285FD0086C40F2016391
:10152000984340F4807008640868406800F4806064
:1015300028B1086C20F4005040F480500864086C16
:1015400000F48050B0F5805F04D1486C20F00600B4
:10155000486401E00020486400BF002081F83C009E
:1015600000BF214A6FF022000B681860506800F03D
:101570001F0018BB1D4B0868984213D01C4B08680D
:10158000984204D1101D006800F01F0050B1194BA3
:101590000868984221D11448001D006800F01F001F
:1015A00010281AD20868806800F0405028B90868EE
:1015B000806840F080400B6898600EE00B4B086834
:1015C00098420AD10868806800F0405028B908683D
:1015D000806840F080400B689860002078E7000049
:1015E000C400002040420F000023014000200140C1
:1015F000002101400022014010B5024692F820303F
:10160000012B01D0022B06D11068406908431468F1
:101610006061002010BD506A40F4802050620120BB
:10162000F8E7F0B504460D461E4694F82070206891
:101630008368A86800B900E000BF012F01D0022F25
:101640007CD103F0806030B903F0006018B903F07A
:101650008050002873D0C3F30161022905D9606A64
:1016600040F4000060620120F0BD0120884030603D
:10167000A86860B9B5F800C0E86840EA4C5C20682A
:1016800000F5C07000EB0110C0F800C00FE0D5E914
:1016900001C040EACC00D5F80CC040EA0C00D4F8F8
:1016A00000C00CF5C07C0CEB011CCCF80000D5F898
:1016B00010C0206800F5C07000EB0110C0F804C035
:1016C000287D01280ED1206800F5C07000EB0110C4
:1016D000406840F4807C206800F5C07000EB011089
:1016E000C0F804C0D079000692F806C040EA0C4069
:1016F00092F805C040EA0C2C10794CEA000C2068E6
:1017000000F5C07000EB0110C0F80CC0D0780006E6
:1017100092F802C040EA0C4092F801C040EA0C2066
:1017200092F800C040EA0C00D4F800C00CF5C07C70
:101730000CEB011CCCF80800206801E016E00FE07B
:1017400000F5C07000EB0110006840F0010C20684B
:1017500000F5C07000EB0110C0F800C0002083E766
:10176000606A40F40010606201207DE7606A40F426
:1017700080206062012077E7F0B504460A462168C0
:1017800094F82050012D01D0022D7ED1424901F55F
:101790000071086840F001000860086820F47C507F
:1017A00008600868566A40EA06200860107D00F06C
:1017B0001F06012000FA06F3C8699843C861A1F525
:1017C0000071D069C8B9D1F80C029843C1F80C0275
:1017D000908880B2968940EA064601F510705769F4
:1017E00040F83760108880B2168940EA064601F555
:1017F0001070576900EBC7004660D069012819D105
:10180000D1F80C021843C1F80C02908880B21688F7
:1018100040EA064601F51070576940F83760908934
:1018200080B2168940EA064601F51070576900EB50
:10183000C7004660906928B9D1F804029843C1F8FE
:10184000040204E0D1F804021843C1F8040210694C
:1018500028B9D1F814029843C1F8140204E0D1F871
:1018600014021843C1F81402106A012804D1D1F8F7
:101870001C021843C1F81C02D1F8000220F001003C
:10188000C1F800020020F0BDFFE7606A40F480204C
:1018900060620120F7E7000000640040704770B507
:1018A000044694F82050012D01D0022D7DD151B96C
:1018B0002068C06800F0030080B9606A40F400103E
:1018C0006062012070BD2068006900F0030028B943
:1018D000606A40F4001060620120F3E7206800F5C0
:1018E000D87000EB0110006800F004009060906870
:1018F00040B9206800F5D87000EB01100068400D79
:10190000106007E0206800F5D87000EB0110006857
:10191000C0085060206800F5D87000EB0110006826
:1019200000F00200D060206800F5D87000EB0110D4
:10193000406800F00F001061206800F5D87000EBDF
:101940000110406800F47F40000A9061206800F5B3
:10195000D87000EB01104068000C5061206800F561
:10196000D87000EB011080681870206800F5D870FE
:1019700000EB0110806800F47F40000A5870206876
:1019800000F5D87000EB0110806800F47F00000CB7
:101990009870206800F5D87000EB01108068000E88
:1019A000D870206800F5D87000E02FE000EB01103F
:1019B000C0681871206800F5D87000EB0110C0688D
:1019C00000F47F40000A5871206800F5D87000EBE1
:1019D0000110C06800F47F00000C9871206800F5C9
:1019E000D87000EB0110C068000ED87131B92068C2
:1019F000C06840F020002668F06005E020680069BB
:101A000040F020002668306100205BE7606A40F407
:101A100080206062012055E72DE9F05F0446002533
:101A2000206846692068D0F804902068876820689C
:101A3000D0F80CA02068D0F810B02068D0F818803A
:101A400006F00100002855D007F00100C0B10120C8
:101A50002168886007F0020018B1204600F07DFA86
:101A60000EE007F0040010B145F4006508E007F04F
:101A7000080010B145F4805502E0204600F06CFAF1
:101A800007F48070C8B14FF480702168886007F453
:101A9000007018B1204600F062FA0EE007F4806092
:101AA00010B145F4005508E007F4006010B145F4AA
:101AB000804502E0204600F051FA07F48030C8B1BA
:101AC0004FF480302168886007F4003018B1204658
:101AD00000F047FA0EE007F4802010B145F400450D
:101AE00008E007F4002010B145F4803502E02046FC
:101AF00000F036FA06F0080038B10AF0100020B104
:101B000045F4007510202168C86006F0040040B15B
:101B10000AF0080028B108202168C860204600F0BB
:101B2000BFF906F0020038B12068C06800F0030079
:101B300010B1204600F0B6F906F0400038B10BF0C5
:101B4000100020B145F4806510202168086106F07E
:101B5000200040B10BF0080028B10820216808617E
:101B6000204600F0C7F906F0100038B1206800697F
:101B700000F0030010B1204600F0BDF906F400307B
:101B800040B109F0100028B11020216848602046BB
:101B900000F0B2F906F4803040B109F0080028B135
:101BA000082021684860204600F0DCF906F4004077
:101BB00088B309F0040078B306F4807020B108F00F
:101BC000010008B145F0010506F4007020B108F0ED
:101BD000020008B145F0020506F4806020B108F06B
:101BE000040008B145F0040506F40060A0B108F057
:101BF000700088B108F07000402817D006DC10286B
:101C00000BD020280CD0302819D10CE0502810D04F
:101C1000602814D110E01DE019E045F008050FE040
:101C200045F010050CE045F0200509E045F04005C1
:101C300006E045F0800503E045F4807500E000BF54
:101C400000BF2068806920F070002168886104204E
:101C5000216848602DB1606A284360622046FFF722
:101C60001DFEBDE8F09F70B504460CB9012070BDA3
:101C700094F8200010B9204600F0B0F82068006801
:101C800020F002002168086000F02EFD05460DE0FE
:101C900000F02AFD401B0A2808D9606A40F4003091
:101CA0006062052084F820000120E0E72068406899
:101CB00000F002000028EBD12068006840F001002D
:101CC0002168086000F010FD05460DE000F00CFDF5
:101CD000401B0A2808D9606A40F400306062052081
:101CE00084F820000120C2E72068406800F001006D
:101CF0000028EBD0207E012806D12068006840F043
:101D000080002168086005E02068006820F08000FD
:101D100021680860607E012806D12068006840F0D4
:101D200040002168086005E02068006820F040005D
:101D300021680860A07E012806D12068006840F074
:101D400020002168086005E02068006820F020007D
:101D500021680860E07E012806D12068006820F034
:101D600010002168086005E02068006840F010005D
:101D700021680860207F012806D12068006840F0B3
:101D800008002168086005E02068006820F008006D
:101D900021680860607F012806D12068006840F053
:101DA00004002168086005E02068006820F0040055
:101DB00021680860D4E90201084321690843616988
:101DC00008436168491E08432168C86100206062B9
:101DD000012084F82000002049E7000010B586B0FB
:101DE0000446142101A8FEF735FA2A4920688842E2
:101DF0004ED100BF002000902748006840F00070DE
:101E0000254908600846006800F00070009000BF97
:101E100000BF00BF002000901F481038006840F04D
:101E200002001D49103908600846006800F00200F1
:101E3000009000BF00BF8815019002200290012091
:101E40000390032004900920059001A9134800F095
:101E500045FB4FF400700190022002900020039097
:101E6000032004900920059001A90C4800F036FBDE
:101E700000221146142000F0C1FC142000F0AEFC3A
:101E800000221146152000F0B9FC152000F0A6FC38
:101E900006B010BD0064004040380240000402401B
:101EA0007047000030B587B00446012220210E485B
:101EB00000F014FC00250D4B6A4600212046FFF778
:101EC000EEFC0A4890ED000A094880ED070A0298E6
:101ED000042801D1019D00E0009D0022202102483C
:101EE00000F0FCFB07B030BD0008024040000020BD
:101EF000F401002070477047704770B5044694F8AD
:101F00002000012822D1022084F8200020680068E7
:101F100020F001002168086000F0E6FB05460DE0B6
:101F200000F0E2FB401B0A2808D9606A40F4003048
:101F30006062052084F82000012070BD20684068A0
:101F400000F001000028EBD16062F6E7606A40F41F
:101F5000002060620120F0E77047704770477047CB
:101F600070477047704770B503460024002500BFD6
:101F70005879012801D1022070BD0120587100BF9D
:101F8000022018711868046840F6FE70904084437F
:101F9000D1E9000640EA060505FA02F00443186894
:101FA000046018680668C020904086431868066080
:101FB0000120187100BF0020587100BF00BFDBE78F
:101FC00010B504460CB9012010BD207920B90020BD
:101FD0006071204600F008F8022020710020206186
:101FE000012020710020EFE710B586B004461421CF
:101FF00001A8FEF72FF91949206888422BD100BFAC
:10200000002000901648006840F000501449086015
:102010000846006800F00050009000BF00BF00BFFD
:10202000002000900E481038006840F001000C4974
:10203000103908600846006800F00100009000BFF9
:1020400000BF10200190032002900020039001A9FE
:10205000044800F043FA06B010BD000000740040D0
:10206000403802400000024030B502460023002400
:1020700000BF5079012801D1022030BD01205071EC
:1020800000BF022010711068006801258D402843B0
:102090001568286091B91068006800F004031068A2
:1020A000006800F03804042B1CD1382C1AD11068B9
:1020B000406840F001001568686013E0106800682F
:1020C00000F480231068006800F46014B3F5802FDA
:1020D00008D1B4F5601F05D11068406840F00200D7
:1020E000156868600120107100BF0020507100BFAA
:1020F00000BFC2E7F8B50446002000908C48006895
:102100004FF41651B0FBF1F7A56D2E6894F85C10F2
:1021100008208840304098B12068006800F0040032
:1021200070B12068006820F004002168086094F80D
:102130005C1008208840A860606D40F00100606578
:1021400094F85C1001208840304068B120684069F4
:1021500000F0800040B194F85C1001208840A86035
:10216000606D40F00200606594F85C1004208840C7
:10217000304068B12068006800F0020040B194F877
:102180005C1004208840A860606D40F00400606529
:1021900094F85C1010208840304078B320680068C4
:1021A00000F0080050B394F85C1010208840A8603C
:1021B0002068006800F4802080B12068006800F486
:1021C000002028B9206CC8B12046216C884715E052
:1021D000A06C98B12046A16C88470FE02068006889
:1021E00000F4807028B92068006820F00800216899
:1021F0000860206C10B12046216C884794F85C1070
:10220000202088403040002865D02068006800F019
:10221000100000285FD094F85C1020208840A8604F
:1022200094F83500052828D12068006820F01600B1
:10223000216808602068406920F0800021684861BA
:10224000206C08B9A06C28B12068006820F0080054
:102250002168086094F85C103F208840A86000BFA7
:10226000002084F8340000BF012084F83500206D80
:1022700010B12046216D8847F8BD2068006800F441
:10228000802080B12068006800F4002028B9606CCC
:1022900010B12046616C88471DE0E06BD8B1204644
:1022A000E16B884717E02068006800F4807068B927
:1022B0002068006820F010002168086000BF00203E
:1022C00084F8340000BF012084F83500E06B10B1C1
:1022D0002046E16B8847606D38B3606D00F0010007
:1022E000F0B1052084F835002068006820F0010076
:1022F0002168086000BF0098401C0090B84200D9D7
:1023000005E02068006800F001000028F3D100BF5C
:1023100000BF002084F8340000BF012084F835009D
:10232000E06C10B12046E16C884700BFA4E70000D4
:10233000C40000202DE9F0410446002500F0D4F946
:10234000074614B90120BDE8F081606A00B100BF02
:1023500000BF002084F8340000BF022084F835005C
:102360002068006820F00100216808600AE000F0A1
:10237000BBF9C01B052805D920206065032084F81F
:102380003500E0E72068006800F001000028EED189
:102390002068056821480540D4E901010843E16847
:1023A00008432169084361690843A1690843E16959
:1023B0000843216A08430543606A042803D1D4E92D
:1023C0000B0108430543206805602068456925F036
:1023D0000705606A0543606A04280DD1A06A0543B9
:1023E000E06A48B12046FEF741FD28B14020606513
:1023F000012084F83500A6E7206845612046FEF7F5
:102400001BFD064694F85C103F208840B060002019
:102410006065012084F83500002094E73F8010F0CB
:102420002DE9F04704460D4616461F464FF00008BA
:10243000D4F8589000BF94F83400012802D102204B
:10244000BDE8F087012084F8340000BF94F835001F
:10245000012825D1022084F83500002060653B4624
:10246000324629462046FEF756FD94F85C103F2080
:102470008840C9F808002068006840F0160021680C
:102480000860206C28B12068006840F008002168CE
:1024900008602068006840F001002168086006E0DC
:1024A00000BF002084F8340000BF4FF0020840460F
:1024B000C6E7000070B5044600F016F9064625464A
:1024C000681C10B104480078054400BF00F00CF906
:1024D000801BA842FAD370BDC0000020F8B50246A8
:1024E0000B460025002400200021DCE0012606FA2E
:1024F00001F51E6806EA0504AC4273D15E68012E40
:1025000008D05E68022E05D05E68112E02D05E688B
:10251000122E13D190684F000326BE40B0434F00E7
:10252000DE68BE4030439060506801268E40B04364
:102530001E79C6F300168E4030435060D0684F00BD
:102540000326BE40B0434F009E68BE403043D0607B
:102550005E68022E02D05E68122E13D1CF0802F1FF
:10256000200656F827004E07F70E0F26BE40B04350
:102570004F07FF0E1E69BE403043CF0802F1200610
:1025800046F8270010684F000326BE40B0431E796E
:1025900006F003064F00BE40304310605E6806F050
:1025A0008056B6F1805F7DD100BF00260096404E78
:1025B000366846F480463E4F3E603E46366806F436
:1025C0008046009600BF00BF3A4E8F0856F827009D
:1025D0008E07370F0F26BE40B043374EB24202D1AE
:1025E000002624E05EE0354EB24201D101261EE015
:1025F000334EB24201D1022619E0324EB24201D12D
:10260000032614E0304EB24201D104260FE02F4ED3
:10261000B24201D105260AE02D4EB24201D1062672
:1026200005E02C4EB24201D1072600E008268F07B4
:102630003F0FBE4030431F4E8F0846F82700264EFE
:102640003068A0435E6806F48036B6F5803F00D15E
:102650002043214E3060361D3068A0435E6806F48A
:102660000036B6F5003F00D120431B4E361D3060CA
:10267000361D3068A0435E6806F48016B6F5801FEC
:1026800000D12043144E08363060361D3068A04318
:102690005E6806F40016B6F5001F00D120430E4E0A
:1026A0000C363060491C1029FFF420AFF8BD000043
:1026B0004438024008380140000002400004024053
:1026C00000080240000C02400010024000140240CA
:1026D00000180240001C0240003C01400AB1816128
:1026E00001E00B04836170470148006870470000F7
:1026F000B8000020034800680349097808440149EC
:1027000008607047B8000020C000002010B50D48D8
:10271000006840F400700B4908600846006840F407
:10272000806008600846006840F4807008600320FC
:1027300000F0A2F8002000F007F800F02BF80020CD
:1027400010BD0000003C024070B504460E48007801
:102750004FF47A71B1FBF0F00C490968B1FBF0F568
:10276000284601F082FC08B1012070BD102C07D270
:1027700000222146501E00F041F80548046001E0A7
:102780000120F2E70020F0E7C0000020C400002094
:10279000BC00002008B500BF002000900E48006873
:1027A00040F480400C4908600846006800F480400E
:1027B000009000BF00BF00BF00200090081F00680D
:1027C00040F08050091F08600846006800F0805003
:1027D000009000BF00BF08BD4438024001460846D3
:1027E000002809DB00F01F0301229A4043099B00E7
:1027F00003F1E023C3F8002100BF70472DE9F05F2B
:1028000080460D461646002705F0AAF807463946C9
:102810002A46334601F00700C0F1070ABAF1040F57
:1028200002D94FF0040A01E0C0F1070AD14600F1D5
:10283000040ABAF1070F02D24FF0000A01E0A0F13A
:10284000030AD4464FF0010A0AFA09FAAAF1010A6A
:102850000AEA020A0AFA0CFA4FF0010B0BFA0CFB17
:10286000ABF1010B0BEA030B4AEA0B04214640468D
:1028700005F07EF8BDE8F09F00BF00F00702064BB0
:1028800019684FF6FF031940044B0B4343EA02213A
:10289000014B196000BF70470CED00E00000FA0525
:1028A000704702461068416200207047F0B5034649
:1028B00015461868446A21B944EA05401E68B062AA
:1028C00019E01868806A04EB1044002208E01868D8
:1028D00000F5827050F8220004EB1044501CC2B284
:1028E000481E9042F3D844EA0547186800F5827004
:1028F0004E1E40F826700020F0BD10B50446D4F8F6
:10290000040403F0E5FC10BD70B504460D46C5EBAC
:10291000C50304F13C0101EB8301CA682946D4F8E0
:10292000040403F002FC70BD70B504460D46C5EB0F
:10293000C50304F5FE7101EB8301CA682946D4F88A
:10294000040403F072FC70BD10B50446D4F804040E
:1029500003F0C1FC10BD70B504460E4606F08000C1
:1029600080280AD106F00F00C0EBC00104F13C0042
:1029700000EB81050120687009E006F00F00C0EB54
:10298000C00104F5FE7000EB81050020687006F0C0
:102990000F00287000BF94F8BC03012801D1022069
:1029A00070BD012084F8BC0300BF2946206804F0F4
:1029B0008DF900BF002084F8BC0300BF00BFEFE723
:1029C00070B504460E4606F00F006168884201D9D2
:1029D000012070BD06F0800080280AD106F00F00AB
:1029E000C0EBC00104F13C0000EB810501206870E0
:1029F00009E006F00F00C0EBC00104F5FE7000EB2B
:102A00008105002068700020A87006F00F00287073
:102A100000BF94F8BC03012801D10220D9E70120AE
:102A200084F8BC0300BF2946206804F0F7FB00BF10
:102A3000002084F8BC0300BF00BFCAE7024601F0D3
:102A40000F00C0EBC00302F5FE7000EB830080694D
:102A500070472DE9F04705460E4690461F464FF059
:102A6000000906F0800080280AD106F00F00C0EBB4
:102A7000C00105F13C0000EB81040120607009E019
:102A800006F00F00C0EBC00105F5FE7000EB8104FD
:102A90000020607006F00F002070C4F80880E77016
:102AA000607808B12078E080022F01D100202071E9
:102AB00000BF95F8BC03012802D10220BDE8F087D1
:102AC000012085F8BC0300BF2146286804F00AF8FD
:102AD00000BF002085F8BC0300BF4846EEE72DE9A3
:102AE000F04104460E461746984606F00F00C0EB2C
:102AF000C00104F5FE7000EB8105EF60C5F814809D
:102B00000020A861687006F00F0028702069012875
:102B100000D12F6106F00F0028B9227C29462068D9
:102B200004F058FA04E0227C2946206804F00AFCEC
:102B30000020BDE8F08170B504460D4605F00F0099
:102B40006168884201D9012070BD05F080008028AD
:102B50000AD105F00F00C0EBC00104F13C0000EB0E
:102B600081060120707007E0C5EBC50104F5FE7019
:102B700000EB8106002070700120B07005F00F009E
:102B8000307000BF94F8BC03012801D10220DBE7BC
:102B9000012084F8BC0300BF3146206804F085FBA7
:102BA00005F00F0028B9217C04F57172206804F04B
:102BB000FDFA00BF002084F8BC0300BF00BFC3E7DC
:102BC0002DE9F04104460E461746984606F00F00E0
:102BD000C0EBC00104F13C0000EB8105EF60C5F8DB
:102BE00014800020A8610120687006F00F00287092
:102BF0002069012800D12F6106F00F0028B9227C3E
:102C00002946206804F0E6F904E0227C2946206881
:102C100004F098FB0020BDE8F0812DE9FE4F04464A
:102C200020680290029E206804F077FD00287DD184
:102C3000206804F0B1FD08B9BDE8FE8F206804F0FB
:102C4000ABFD00F00200022805D12068406900F0C9
:102C5000020021684861206804F09EFD00F4002015
:102C6000B0F5002F58D10025206804F065FD82469C
:102C70004FE00AF00100002848D0E9B2206804F0D3
:102C80007EFD804608F0010048B1012106F5306064
:102C900000EB451081602946204602F0A7F908F0B4
:102CA0000800082809D12946204602F059F90821D0
:102CB00006F5306000EB4510816008F01000102828
:102CC00005D1102106F5306000EB4510816008F059
:102CD000200020280ED12069012805D104F5717249
:102CE0000121206804F062FA202106F5306000EB33
:102CF0004510816008F40050B0F5005F06D14FF434
:102D0000005106F5306000EB451081606D1C4FEA04
:102D10005A0ABAF1000FACD1206804F03DFD00F46E
:102D20008020B0F5802F7ED1206800E012E204F010
:102D3000F9FC8246002586E00AF0010000287FD0D9
:102D4000E9B2206804F002FD804608F00100E8B313
:102D500005F00F0101208840019040F634008159B0
:102D6000019821EA000040F634018851012106F55E
:102D7000106000EB451081602069012815D1C5EB7A
:102D8000C50104F13C0000EB8100C5EBC502C16840
:102D900004F13C0000EB820080680144C5EBC502F1
:102DA00004F13C0000EB8200C160E9B22046FFF76D
:102DB000ABFD2069012810D145B9C5EBC50104F16F
:102DC0003C0000EB8100406900B900E005E004F53B
:102DD00071720121206804F0E9F908F00800082860
:102DE00005D1082106F5106000EB4510816008F060
:102DF0001000102805D1102106F5106000EB4510D9
:102E0000816008F04000402805D1402106F510609F
:102E100000EB4510816008F00200022808D1022171
:102E200006F5106001E012E00AE000EB4510816059
:102E300008F08000802803D12946204602F096F948
:102E40006D1C4FEA5A0ABAF1000F7FF475AF206883
:102E500004F0A2FC00F00040B0F1004F1CD140F69D
:102E60000400805920F0010140F60400815194F8DB
:102E7000F403012807D1002084F8F4030021204640
:102E8000FFF70EFD02E0204600F094FA206840694A
:102E900000F0004021684861206804F07DFC00F4E7
:102EA0000060B0F5006F0ED140F60800805900F0C8
:102EB000010010B1204600F0D5FA2068406900F406
:102EC000006021684861206804F066FC00F48050CE
:102ED000B0F5805F72D140F60400805920F0010106
:102EE00040F6040081511021206804F0EBFB00271C
:102EF00026E04FF67F3106F5106000EB4710816049
:102F000006F5106000EB4710006820F4001106F58C
:102F1000106000EB471001604FF67F3106F530601E
:102F200000EB4710816006F5306000EB4710006849
:102F300020F4001106F5306000EB471001607F1CA3
:102F40006068B842D5D840F61C00805940F00111A5
:102F500040F61C008151206B70B1D6F8840840F017
:102F60000B01C6F8841840F64400805940F00B016C
:102F700040F6440081510FE040F61400805942F2BF
:102F80002B01084340F614018851081F805940F076
:102F90000B014FF401608151D6F8000820F4FE6067
:102FA000C6F80008217C04F57172206804F0FEF870
:102FB0002068406900F4805021684861206804F06E
:102FC000EBFB00F40050B0F5005F17D1206803F070
:102FD000F1FD206804F08EFBE06000F01FFB009024
:102FE000227B2068009904F027FC204600F0CAF9F3
:102FF0002068406900F4005021684861206804F0AE
:10300000CBFB00F01000102846D12068806920F02A
:103010001000216888610298D0F8209009F00F0014
:10302000C0EBC00104F5FE7000EB810BC9F3434017
:1030300002281AD147F6F07009EA000030B3C9F34C
:103040000A12DBF80C10029804F0ABFBC9F30A116A
:10305000DBF80C000844CBF80C00C9F30A11DBF8CC
:1030600018000844CBF8180010E0C9F343400628C4
:103070000CD1082204F57171029804F092FBC9F397
:103080000A11DBF818000844CBF8180020688069A2
:1030900040F0100021688861206804F07DFB00F09A
:1030A0000800082808D1204600F08BF92068406904
:1030B00000F0080021684861206804F06DFB00F40E
:1030C0008010B0F5801F0AD100252946204600F067
:1030D00043F82068406900F4801021684861206846
:1030E00004F05AFB00F40010B0F5001F0AD10025CF
:1030F0002946204600F039F82068406900F40010A5
:1031000021684861206804F047FB00F08040B0F17E
:10311000804F08D12046FFF7F0FB2068406900F09F
:10312000804021684861206804F036FB00F004000C
:1031300004280FD12068D0F8049009F00400042876
:1031400002D12046FFF700FC2068406840EA0900F1
:103150002168486000BF6FE570B504460D462946FA
:10316000D4F8040403F01EF970BD70B504460D4692
:103170002946D4F8040403F018F970BD70B58AB07C
:10318000044614B901200AB070BD266894F8BD0346
:1031900028B9002084F8BC03204600F0A3F80320DF
:1031A00084F8BD03F06B00F4807008B90021216140
:1031B000206803F007FF282204F110016846FDF79C
:1031C00030F894E80F0003F019FD20B1022084F8D4
:1031D000BD030120D7E70021206804F0F3FA0025A1
:1031E00031E00121C5EBC50204F13C0000EB820097
:1031F0004170C5EBC50104F13C0000F82150C5EB5E
:10320000C50100EB8100C5800021C5EBC50204F1BA
:103210003C0000EB8200C170C5EBC50204F13C002C
:1032200000EB82008160C5EBC50204F13C0000EBBD
:103230008200C160C5EBC50204F13C0000EB8200D6
:103240004161681CC5B26068A842CAD800252AE05E
:103250000021C5EBC50204F5FE7000EB8200417051
:10326000C5EBC50104F5FE7000F821500021C5EB47
:10327000C50200EB8200C170C5EBC50204F5FE700B
:1032800000EB82008160C5EBC50204F5FE7000EB27
:103290008200C160C5EBC50204F5FE7000EB820040
:1032A0004161681CC5B26068A842D1D8282204F1E7
:1032B00010016846FCF7B5FF94E80F0003F088FDA5
:1032C00020B1022084F8BD0301205CE7002084F8CF
:1032D0003800012084F8BD03206803F069FD002058
:1032E00051E7000010B586B004462068B0F1A04F49
:1032F00042D100BF002000902048006840F001004B
:103300001E4908600846006800F00100009000BFF8
:1033100000BF4FF4C05001900220029000200390A3
:10332000032004900A20059001A91548FFF7D6F85C
:1033300000BF1248001D006840F080000F49091DC1
:10334000086000BF002000900C481430006840F472
:1033500080400A49143108600846006800F4804043
:10336000009000BF00BF00BF002211464320FFF7BE
:1033700045FA4320FFF732FA06B010BD303802405C
:103380000000024070B504460125E06808B9002538
:1033900006E0E068022801D1012501E0FDF7E7FD24
:1033A0002946D4F8040403F079F8D4F8040403F0AF
:1033B0002FF870BD10B50446D4F8040403F056F895
:1033C00010BD10B50446D4F8040403F056F810BD3F
:1033D00070B504460D4600BF94F8BC03012801D126
:1033E000022070BD012084F8BC0300BF84F838506F
:1033F0002946206804F001FA00BF002084F8BC03CD
:1034000000BF00BFEDE710B5044604F57171D4F8B4
:10341000040403F05AF810BD70B50446256800BFD7
:1034200094F8BC03012801D1022070BD012084F86A
:10343000BC0300BFA06A012806D1A069012803D0FF
:10344000A86B40F48030A863206803F0A1FC2068DA
:1034500004F01AF900BF002084F8BC0300BF00BFCD
:10346000E3E7000010B50446D4F8040403F086F83E
:103470002068D0F8000E40F001002168C1F8000E6D
:10348000206A28B10348006840F00600014908603E
:1034900010BD000010ED00E070B504460D460CB9FB
:1034A000012070BD5848006800F00F00A84209D202
:1034B00055490D700846006800F00F00A84201D081
:1034C0000120EEE7207800F0020002281DD12078CC
:1034D00000F00400042805D14C48006840F4E05096
:1034E0004A490860207800F00800082805D14748BC
:1034F000006840F46040454908604448006820F096
:10350000F000A168084341490860207800F00100FC
:10351000A8B36068012807D13C4808380068C0F3A8
:103520004040B8B90120BCE76068022802D060685A
:10353000032807D1354808380068C0F3406048B90F
:103540000120AEE7314808380068C0F3400008B9F0
:103550000120A6E72D48006820F0030061680843B9
:103560002A490860FFF7C0F8064609E0FFF7BCF8F3
:10357000801B41F28831884202D9032091E707E09D
:103580002248006800F00C006168B0EB810FEDD1BB
:103590001D48006800F00F00A84209D91A490D70B3
:1035A0000846006800F00F00A84201D0012078E72B
:1035B000207800F00400042807D11448006820F4A3
:1035C000E050E168084311490860207800F00800E5
:1035D000082808D10D48006820F46040216940EABD
:1035E000C1000A49086000F01FF808490968C1F3E2
:1035F0000311074A515CC840064908600648006844
:10360000FFF7A2F800204CE7003C024008380240D7
:1036100044880008C4000020BC0000200148006865
:1036200070470000C40000202DE9F0470024002569
:103630000026A1462548006800F00C0020B10428AF
:1036400005D008283AD105E0DFF8849039E0DFF8AA
:10365000849036E01D48001F006800F03F041B48BE
:10366000001F006800F4800078B11A481749091F4C
:103670000968C1F38811A0FB0170014622460023AE
:103680003846FCF79DFD05460EE011480F49091F1D
:103690000968C1F38811A0FB01700146224600238E
:1036A0003846FCF78DFD05460848001F0068C0F34A
:1036B0000140401C4600B5FBF6F902E0DFF810902F
:1036C00000BF00BF4846BDE8F08700000838024050
:1036D0000024F40000127A00F8B504460CB9012069
:1036E000F8BD207800F00100002874D0F948006887
:1036F00000F00C0004280DD0F648006800F00C0023
:10370000082813D1F348001F006800F48000B0F5CA
:10371000800F0BD1EF4808380068C0F34040002804
:1037200059D06068002856D10120D9E700BF6068F1
:10373000B0F5803F08D1E7480838006840F4803091
:10374000E449083908601EE06068B0F5A02F0DD18B
:10375000E0480838006840F48020DE4908390860F5
:103760000846006840F4803008600CE0D94808380A
:10377000006820F48030D74908390860084600689E
:1037800020F48020086000BF606890B1FEF7ACFFB5
:10379000054606E0FEF7A8FF401B642801D9032078
:1037A0009EE7CC4808380068C0F340400028F1D0BC
:1037B00011E0FEF799FF054606E0FEF795FF401B76
:1037C000642801D903208BE7C24808380068C0F399
:1037D00040400028F1D1207800F0020002285FD19B
:1037E000BC48006800F00C0058B1BA48006800F00E
:1037F0000C0008281CD1B748001F006800F48000A6
:10380000B0B9B44808380068C0F3400020B1E0689F
:10381000012801D0012063E7AE480838006820F095
:10382000F800216940EAC100AA490839086037E078
:10383000E06800B30120A8490860FEF755FF05467F
:1038400006E0FEF751FF401B022801D9032047E79D
:10385000A04808380068C0F340000028F1D09D4817
:103860000838006820F0F800216940EAC100994951
:103870000839086014E0002097490860FEF734FF1B
:10388000054606E0FEF730FF401B022801D9032061
:1038900026E7904808380068C0F340000028F1D1BE
:1038A000207800F0080008282CD16069A8B1012018
:1038B0008A490860FEF718FF054606E0FEF714FF88
:1038C000401B022801D903200AE782486C300068B7
:1038D000C0F340000028F1D014E000207F490860C8
:1038E000FEF702FF054606E0FEF7FEFE401B02283B
:1038F00001D90320F4E677486C300068C0F340003B
:103900000028F1D1207800F00400042870D10027AD
:1039100070483830006800F0805090B900BF002037
:1039200000906C483830006840F080506949383168
:1039300008600846006800F08050009000BF00BF9B
:1039400001276748006800F48070B0B964480068D7
:1039500040F4807062490860FEF7C6FE054606E046
:10396000FEF7C2FE401B022801D90320B8E65C48DE
:10397000006800F480700028F2D000BFA068012821
:1039800008D154486830006840F00100514968315E
:1039900008601DE0A06805280DD14E486830006819
:1039A00040F004004B49683108600846006840F068
:1039B000010008600CE047486830006820F0010012
:1039C0004449683108600846006820F00400086037
:1039D00000BFA068A8B1FEF787FE054609E0FEF724
:1039E00083FE401B41F28831884202D9032077E6EA
:1039F00026E0384868300068C0F340000028EED068
:103A000013E0FEF771FE054608E0FEF76DFE401B71
:103A100041F28831884201D9032061E62D4868309F
:103A20000068C0F340000028EFD1012F07D12948DA
:103A30003830006820F0805026493831086000BFD7
:103A4000A069002845D02348006800F00C00082831
:103A50005DD0A069022845D100201F490866FEF705
:103A600043FE054606E0FEF73FFE401B022801D953
:103A7000032035E6174808380068C0F34060002886
:103A8000F1D1D4E907010843616A40EA81110122BA
:103A9000A06AC2EB500041EA00412C20005D41EADF
:103AA00000600C49091F086001200B490866FEF7F9
:103AB0001BFE054606E0FEF717FE401B022801D953
:103AC00003200DE6034808380068C0F34060002872
:103AD000F1D03FE00838024000004742800E4742E4
:103AE0000070004000201C490866FEF7FDFD0546F9
:103AF00006E0FEF7F9FD401B022801D90320EFE59F
:103B000016480068C0F340600028F2D122E0A069A6
:103B1000012800D1E4E511480830066806F4800168
:103B2000E069814214D106F03F01206A81420FD141
:103B300047F6C0703040616A884209D106F44031CE
:103B4000A06A814204D106F07061E06A814201D02E
:103B50000120C5E50020C3E50000474200380240CF
:103B600010B504460CB9012010BD606A00B900BF51
:103B70000021A16294F8510028B9002084F8500077
:103B8000204600F033F8022084F8510020680068D5
:103B900020F0400021680860D4E901010843E16891
:103BA00008432169084361690843218B01F40071CE
:103BB0000843E1690843216A0843A16A0843216870
:103BC00008600421A06901EA1040616A0843216885
:103BD00048602068C06920F400602168C861002046
:103BE0006065012084F851000020BDE710B586B063
:103BF0000446142101A8FCF72DFB334920688842B4
:103C00005FD100BF002000903048006840F4805031
:103C10002E4908600846006800F48050009000BFFC
:103C200000BF00BF0020009028481438006840F012
:103C300001002649143908600846006800F00100B8
:103C4000009000BF00BF20200190022002900120C0
:103C50000390032004900520059001A91C48FEF75D
:103C60003DFC4020019002200290002003900320A0
:103C700004900520059001A91548FEF72FFC154872
:103C8000154908604FF0C06048600021124881600B
:103C9000C1604FF480610161490041618900816127
:103CA0000021C1614FF48031016200214162FEF7C1
:103CB00041FB08B1FDF75BF900BF0748E06484638E
:103CC00000BF06B010BD0000003001404438024083
:103CD0000000024040640240C80400202DE9F8437F
:103CE0000446884616461D464FF000096068B0F548
:103CF000827F0DD1A06858B9042084F85100334662
:103D0000424641462046009500F09AF8BDE8F88307
:103D100000BF94F85000012801D10220F6E70120ED
:103D200084F8500000BFFEF7DFFC074694F851000E
:103D3000012802D04FF0020978E0B8F1000F00D05E
:103D400016B94FF0010971E0042084F851000020F9
:103D50006065C4F83880A687E6872063A086E08681
:103D600020646064A068B0F5004F05D12068006849
:103D700020F48040216808602068006800F040005E
:103D8000402805D02068006840F0400021680860A5
:103D9000E068F8B91AE02068806800F0010050B1CE
:103DA0002068007BA16B0870A06B401CA063E08FB3
:103DB000401EE0870AE0FEF797FCC01BA84201D333
:103DC000681C00B915B94FF003092FE0E08F0028F7
:103DD000E1D11EE01AE02068806800F0010050B1D7
:103DE0002068C068A16B0880A06B801CA063E08F76
:103DF000401EE0870AE0FEF777FCC01BA84201D313
:103E0000681C00B915B94FF003090FE0E08F0028D6
:103E1000E1D13A462946204601F004FA08B12020B3
:103E20006065606D08B14FF0010900BF012084F8A2
:103E3000510000BF002084F8500000BF484665E7ED
:103E40002DE9FF5F0446884691461D460E9E0120DF
:103E500002900020019000BF94F85000012803D187
:103E6000022004B0BDE8F09F012084F8500000BF9C
:103E7000FEF73AFC074694F851B060680390AA46F2
:103E8000BBF1010F0BD00398B0F5827F04D1A0687D
:103E900010B9BBF1040F02D002200190DBE0B8F1B1
:103EA000000F03D0B9F1000F00D015B90120019027
:103EB000D1E094F85100042802D0052084F8510084
:103EC00000206065C4F83890E587A587C4F8308085
:103ED000E586A586206460642068006800F04000E4
:103EE000402805D02068006840F040002168086044
:103EF000E068B0F5006F4AD1606810B1BAF1010F07
:103F000009D1206B00882168C860206B801C206369
:103F1000E08E401EE08633E02068806800F00200FA
:103F2000022810D1E08E70B1029801280BD1206BCD
:103F300000882168C860206B801C2063E08E401ED2
:103F4000E086002002902068806800F0010068B1DF
:103F5000E08F58B12068C068A16B0880A06B801CFE
:103F6000A063E08F401EE08701200290FEF7BCFBBB
:103F7000C01BB04204D3701C10B1032001906AE052
:103F8000E08E0028C8D1E08F0028C5D14AE06068E3
:103F900010B1BAF1010F09D1206B007821680873C4
:103FA000206B401C2063E08E401EE08634E02068D9
:103FB000806800F00200022810D1E08E70B10298F3
:103FC00001280BD1206B007821680873206B401CFE
:103FD0002063E08E401EE08600200290206880680A
:103FE00000F0010068B1E08F58B12068C068A16B93
:103FF0000870A06B401CA063E08F401EE08701208A
:104000000290FEF771FBC01BB04201D3701C00B9D7
:1040100016B9032001901EE0E08E0028C7D1E08F82
:104020000028C4D13A463146204601F045F920B176
:1040300001200190202060650DE0A06850B900BF0C
:10404000002000902068C068009020688068009080
:1040500000BF00BF00BF012084F8510000BF002056
:1040600084F8500000BF0198FBE670B50446254671
:10407000681EB0F1807F01D301200FE0681E4FF071
:10408000E02148610F214FF0FF3003F071FC002068
:104090004FF0E021886107200861002070BD704763
:1040A000704710B50346002200BF93F83C0001287A
:1040B00001D1022010BD012083F83C0000BF22F096
:1040C000FF00CC6840EA040222F440708C6840EAA9
:1040D000040222F480604C6840EA040222F400608A
:1040E0000C6840EA040222F480500C6940EA0402A1
:1040F00022F400504C6940EA040222F48040CC696A
:1041000040EA04021868426400BF002083F83C00C3
:1041100000BF00BFCEE7000030B502460B4600BF2F
:1041200092F83C00012801D1022030BD012082F824
:104130003C0000BF022082F83D001068446810680F
:10414000816824F070041868044310684460184DB6
:104150001068A8421BD01068B0F1804F17D0154DE1
:104160001068A84213D0144D1068A8420FD0134D08
:104170001068A8420BD0124D1068A84207D0114D0C
:104180001068A84203D0104D1068A84205D121F054
:1041900080015868014310688160012082F83D0069
:1041A00000BF002082F83C0000BF00BFBDE7000058
:1041B000000001400004004000080040000C0040E6
:1041C00000040140004001400018004010B50446C2
:1041D0000CB9012010BD94F83D0028B9002084F8E6
:1041E0003C00204600F00CF8022084F83D00211D20
:1041F000206801F061F9012084F83D000020E9E722
:1042000038B504462349206888420FD100BF0020FA
:1042100000902148006840F001001F4908600846EE
:10422000006800F00100009000BF32E01B492068E8
:1042300088421AD100BF002000901748001F006874
:1042400040F002001449091F08600846006800F0A9
:104250000200009000BF00BF002211461D20FEF7A3
:10426000CDFA1D20FEF7BAFA13E00D492068884206
:104270000FD100BF002000900748006840F0020006
:10428000054908600846006800F00200009000BF81
:1042900000BF38BD00000140443802400004004027
:1042A0000004014001460868C06840F001000B6846
:1042B000D8600868806800F00702062A05D0086800
:1042C000006840F001000B681860002070472DE97D
:1042D000F04104460D4600BF94F83C00012802D18D
:1042E0000220BDE8F081012084F83C0000BF0220DC
:1042F00084F83D002068866826F0770626F47F461D
:10430000206886602868502833D00CDC202850D0E4
:1043100004DC00284BD0102851D149E0302849D086
:1043200040284CD139E060282DD0702807D0B0F556
:10433000805F03D0B0F5005F41D10DE040E0D5E9EA
:1043400002136A68206801F023F92068866846F045
:1043500077062068866033E0D5E902136A68206832
:1043600001F016F92068806840F480402168886078
:1043700026E0EA686968206801F04FFA5021206859
:1043800001F011F91CE0EA686968206801F058FA48
:104390006021206801F007F912E0EA686968206886
:1043A00001F03BFA4021206801F0FDF808E000BF71
:1043B00000BF00BF2968206801F0F5F800E000BFE9
:1043C00000BF012084F83D0000BF002084F83C00BD
:1043D00000BF00BF85E7704710B50446206800693C
:1043E000C0F34000D8B12068C068C0F34000B0B14D
:1043F0006FF0020021680861012020772068806941
:1044000000F0030018B12046FFF7E5FF05E0204665
:1044100000F038F9204600F0F0F9002020772068FD
:104420000069C0F38000D8B12068C068C0F3800084
:10443000B0B16FF004002168086102202077206885
:10444000806900F4407018B12046FFF7C4FF05E012
:10445000204600F017F9204600F0CFF90020207721
:1044600020680069C0F3C000D8B12068C068C0F3FC
:10447000C000B0B16FF00800216808610420207707
:104480002068C06900F0030018B12046FFF7A3FFC1
:1044900005E0204600F0F6F8204600F0AEF90020D6
:1044A000207720680069C0F30010D8B12068C06888
:1044B000C0F30010B0B16FF010002168086108204F
:1044C00020772068C06900F4407018B12046FFF7DB
:1044D00082FF05E0204600F0D5F8204600F08DF977
:1044E000002020772068006900F0010058B12068A2
:1044F000C06800F0010030B16FF001002168086170
:10450000204600F07BF920680069C0F3C01058B164
:104510002068C068C0F3C01030B16FF0800021681F
:1045200008612046FFF7BBFD20680069C0F38010DA
:1045300058B12068C068C0F3801030B16FF04000FF
:1045400021680861204600F0AFF920680069C0F3D7
:10455000401058B12068C068C0F3401030B16FF00F
:104560002000216808612046FFF79AFD10BD000079
:1045700010B586B00446142101A8FBF76BFE204954
:10458000206888423AD100BF002000901D48006892
:1045900040F002001B4908600846006800F0020075
:1045A000009000BF00BF00BF0020009008460068D8
:1045B00040F0010008600846006800F0010000902B
:1045C00000BF00BF4FF46040019002200290002025
:1045D000039004900120059001A90B48FDF77EFF90
:1045E0004FF4E060019002200290002003900490BC
:1045F0000120059001A90548FDF770FF06B010BD28
:104600000000014030380240000402400000024037
:1046100070B504460E46154600BF94F83C000128CC
:1046200001D1022070BD012084F83C0000BF0220AF
:1046300084F83D0035B1042D09D0082D0CD00C2D87
:1046400014D10EE03146206800F0B6FF0FE031468D
:10465000206800F0E9FF0AE03146206801F022F806
:1046600005E03146206801F059F800E000BF00BFC6
:10467000012084F83D0000BF002084F83C0000BF0A
:1046800000BFCFE7704710B504460CB9012010BD3C
:1046900094F83D0028B9002084F83C00204600F042
:1046A0000CF8022084F83D00211D206800F004FF72
:1046B000012084F83D000020E9E7704770B504460A
:1046C0000D46164600BF94F83C00012801D1022097
:1046D00070BD012084F83C0000BF022084F83D003A
:1046E00036B1042E1BD0082E31D00C2E5ED145E001
:1046F0002946206800F060FF2068806940F00800CB
:10470000216888612068806920F004002168886140
:1047100020688069296908432168886147E0294643
:10472000206800F081FF2068806940F40060216803
:1047300088612068806920F4806021688861206831
:104740008069296940EA0120216888612FE02946B3
:10475000206800F0A7FF2068C06940F008002168C9
:10476000C8612068C06920F004002168C861206821
:10477000C069296908432168C86118E02946206892
:1047800000F0CCFF2068C06940F400602168C86177
:104790002068C06920F480602168C8612068C06911
:1047A000296940EA01202168C86100E000BF00BF1C
:1047B000012084F83D0000BF002084F83C0000BFC9
:1047C00000BF85E710B504460CB9012010BD94F870
:1047D0003D0028B9002084F83C00204600F00CF889
:1047E000022084F83D00211D206800F065FE0120B4
:1047F00084F83D000020E9E77047704710B5044693
:104800000849206888420CD1074808498969016035
:104810000649C9684160064B024606490648FCF74E
:1048200000FF10BD0004004038000020F40100200B
:1048300050000020040300203404002070B504461A
:104840000D4600BF94F83C00012801D1022070BD44
:10485000012084F83C0000BF022084F83D00294676
:10486000204600F085FF48B1012084F83D0000BFDC
:10487000002084F83C0000BF0120E8E72068C06801
:1048800020F040002168C8602068C06820F48040A3
:104890002168C860012084F83D0000BF002084F832
:1048A0003C0000BF00BFD2E7704700BFFEE730B555
:1048B0000B46002100BF16E00A24B4EB107F05D997
:1048C000302404EB107403F8114005E0412404EB9C
:1048D00010740A3C03F81140000100254C00641CD0
:1048E0001D554C1CE1B29142E6DB30BD00B587B0EE
:1048F0000020049005900690009001900290039093
:104900002A482B4908604FF480304860002128482D
:104910008160012101610021017680F820104FF0B3
:104920000051C1624FF0506181620021C1600321DA
:10493000C161012180F830104161FCF7C3FC08B16E
:10494000FCF715FB062004904FF400400590002072
:10495000069004A91648FCF725FB08B1FCF707FBF5
:104960000820009001200190002002906946104824
:10497000FCF7DEFB08B1FCF7FAFA092000900220F0
:10498000019069460A48FCF7D3FB08B1FCF7EFFA3F
:104990000C2000900320019069460548FCF7C8FBF5
:1049A00008B1FCF7E4FA07B000BD000000200140A8
:1049B000440300201FB50020009001900290039056
:1049C0001F48204908604FF48030486000211D488E
:1049D0008160012101610021017680F82010C16011
:1049E0000321C161002180F8301001214161FCF7F1
:1049F00069FC08B1FCF7BBFA082000900120019087
:104A00000020029069460F48FCF792FB08B1FCF7C2
:104A1000AEFA092000900220019069460948FCF78F
:104A200087FB08B1FCF7A3FA0C200090032001904B
:104A300069460448FCF77CFB08B1FCF798FA1FBDF7
:104A4000002101408C03002010B50F480F49086079
:104A50000720486000210D488160C1604FF480212B
:104A600001614FF4A00141610021017601214176ED
:104A700000218176C17601774177FDF7F4F808B11E
:104A8000FCF775FA10BD00000064004034040020FB
:104A90001CB50020009001900A480B4908600846A8
:104AA000FDF78EFA08B1FCF762FA00200090019041
:104AB000002269460448FDF756FA08B1FCF757FA98
:104AC0001CBD0000007400405C04002008B500BF5D
:104AD000002000900E48006840F480000C490860F7
:104AE0000846006800F48000009000BF00BF00226C
:104AF00001213820FDF782FE3820FDF76FFE0022ED
:104B000011463A20FDF77AFE3A20FDF767FE08BD10
:104B10003038024000B587B0142102A8FBF79AFB99
:104B200000BF002001903348006840F08000314908
:104B300008600846006800F08000019000BF00BFD8
:104B400000BF002001900846006840F004000860A3
:104B50000846006800F00400019000BF00BF00BFDD
:104B6000002001900846006840F0010008600846F7
:104B7000006800F00100019000BF00BF00BF0020EE
:104B800001900846006840F002000860084600688E
:104B900000F00200019000BF00BF0022082116486B
:104BA000FDF79CFD00224FF486611448FDF796FD49
:104BB000082002900120039000200490059002A993
:104BC0000D48FDF78BFC4FF48660029001200390A6
:104BD00000200490059002A90848FDF77FFC802082
:104BE000029000200390049002A90548FDF776FC8E
:104BF00007B000BD3038024000000240000802400B
:104C00000004024010B51048104908604FF482704B
:104C100048604FF480610D4881604900C160022105
:104C2000016101214161490281612021C1610021AD
:104C30000162416281620A21C162FEF791FF08B1FF
:104C4000FCF795F910BD0000003001407004002011
:104C500000B595B0002011901290139014900F9011
:104C600010901C2108A8FBF7F5FA20216846FBF7F5
:104C7000F1FA3C483C4908600020486020213A484D
:104C8000816041F26801C16000210161416181617F
:104C9000FFF79CFA08B1FCF76AF94FF480501190C5
:104CA00011A93148FFF713FB08B1FCF760F92E4852
:104CB000FFF788FD08B1FCF75AF92B48FFF7E3FC32
:104CC00008B1FCF754F900200F90802010900FA934
:104CD0002548FFF721FA08B1FCF749F96020089050
:104CE000002009900A900B900C900D900E900022DD
:104CF00008A91D48FFF7E2FC08B1FCF738F90422C7
:104D000008A91948FFF7DAFC08B1FCF730F90822C6
:104D100008A91548FFF7D2FC08B1FCF728F90020D4
:104D200008900C2208A91048FFF772FC08B1FCF7A4
:104D30001EF90020009001900290102003900020A6
:104D400004904FF4005005900020079069460648F3
:104D5000FFF7A7F908B1FCF70AF90348FFF708FCC9
:104D600015B000BD000001402805002000B58DB041
:104D7000002009900A900B900C90079008901C213D
:104D80006846FBF767FA1E481E49086063204860C2
:104D900000211C48816041F26801C160002101616D
:104DA0008161FFF713FA08B1FCF7E1F84FF4805086
:104DB000099009A91348FFF78AFA08B1FCF7D7F858
:104DC0001048FFF760FC08B1FCF7D1F8002007900D
:104DD000089007A90B48FFF79FF908B1FCF7C7F83F
:104DE000002000900190029004900022694605483E
:104DF000FFF70EFC08B1FCF7BAF80DB000BD0000DB
:104E0000000400406805002000B59BB0002017900A
:104E1000189019901A90142112A8FBF71BFA002081
:104E2000109011901C2109A8FBF714FA202101A869
:104E3000FBF710FA2F483049086000204860002135
:104E40002D48816042F2CF01C160002101614161C2
:104E50008161FFF7BBF908B1FCF789F84FF4805086
:104E6000179017A92448FFF732FA08B1FCF77FF82A
:104E70002148FFF7A7FC08B1FCF779F8042012904D
:104E80000020139012A91C48FFF7D8FC08B1FCF7CA
:104E90006EF800201090119010A91748FFF73CF908
:104EA00008B1FCF764F86020099040F6B4700A90ED
:104EB00000200B900C900D900E900F90002209A9ED
:104EC0000D48FFF7FBFB08B1FCF751F800200190FB
:104ED00002900390049005904FF40050069000203B
:104EE000089001A90448FFF7DCF808B1FCF73FF887
:104EF0001BB000BD00040140A805002010B5002231
:104F00000D490E4801F0D2F808B1FCF730F80C4911
:104F10000A4801F069FB08B1FCF729F8094907487C
:104F200000F0D3FD08B1FCF722F8044801F026FC9C
:104F300008B1FCF71CF810BD58000020E80500205F
:104F4000D8000020A800002000BFFEE77047000046
:104F500010B50248FDF761FE10BD00008408002076
:104F60002DE9F04705460C462F683E46D7F84080AD
:104F700006F5306000EB4410D0F80890286901284D
:104F80000FD1184880451BD909F40040B0F5004FF7
:104F900016D14FF4004106F5306000EB44108160FB
:104FA0000EE0114880450BD109F40040B0F5004FE8
:104FB00006D14FF4004106F5306000EB44108160EB
:104FC0002846FEF720FA0748804508D928690128B5
:104FD00005D105F571720121286802F0E7F800207B
:104FE000BDE8F0870A30544F0A31544F2DE9F0479D
:104FF00005460C46D5F800804646D8F8409006F5A0
:10500000306000EB44108768286901287ED107F0E2
:10501000080008281ED1534881450BD907F40040E9
:10502000B0F5004F06D14FF4004106F5306000EBBB
:10503000441081602846FEF7E6F905F571720121FA
:10504000286802F0B3F8082106F5306000EB441040
:10505000816083E007F02000202806D1202106F59A
:10506000306000EB4410816078E007F028000028F1
:1050700074D13C4881450CD907F40040B0F5004F8D
:1050800007D14FF4004106F5306000EB4410816019
:1050900064E0C4EBC40105F5FE7000EB810081689B
:1050A00006F5306000EB44100069C0F31200091AE5
:1050B000C4EBC40205F5FE7000EB82008161C4EB15
:1050C000C40105F5FE7000EB8100C4EBC402C168A9
:1050D00005F5FE7000EB820080680144C4EBC40259
:1050E00005F5FE7000EB8200C160E1B22846FDF7D5
:1050F0001BFCFCB9C4EBC40105F5FE7000EB81009C
:105100004069B8B905F57172012100E003E0286833
:1051100002F04CF822E0144881451BD107F400400E
:10512000B0F5004F07D14FF4004106F5306000EBB9
:105130004410816012E007F02000202805D12021D2
:1051400006F5306000EB44108160E1B22846FDF7BF
:10515000EBFB03E0E1B22846FDF7E6FB0020BDE8EB
:10516000F08700000A30544F0A31544F2DE9F84FB0
:1051700007460E46D7F80090C846C6EBC60107F1B1
:105180003C0000EB8104D4E90510884202D90120DB
:10519000BDE8F88FD4E90501451AA068A84200D2FD
:1051A000A568E81C4FEA900A17E0D4E90501451A02
:1051B000A068A84200D2A568E81C4FEA900A387C93
:1051C000ABB2F2B200904846E16802F0A9FBE06899
:1051D0002844E060A0692844A06108F5106000EB55
:1051E0004610806980B2504506D3D4E90510884244
:1051F00002D260690028D8D1D4E9050188420ED8CE
:1052000006F00F01012000FA01FB40F6340050F8CF
:10521000080020EA0B0040F6340141F808000020A5
:10522000B6E77047F8B504460E4615466068B0F517
:10523000827F0DD1A068B0F5004F03D0A068B0F513
:10524000806F05D12068006820F040002168086068
:105250006068B0F5827F1FD1A068B0F5806F0DD077
:105260003346002280212046009500F05BF808B309
:10527000606D40F0200060650320F8BD33460022D9
:1052800001212046009500F04DF898B1606D40F086
:10529000200060650320F0E733460022012120460C
:1052A000009500F03FF828B1606D40F02000606587
:1052B0000320E2E70020E0E77CB504460D461646F1
:1052C000164800681821B0FBF1F01549B0FBF1F069
:1052D0004FF47A71484301906068B0F5827F0DD138
:1052E0002B46002280212046009600F01BF898B142
:1052F000606D40F02000606503207CBD00BF019818
:1053000000B908E00198401E019020688068C0F351
:10531000C0100028F3D100BF0020EEE7C400002039
:1053200040420F002DE9F04104460E4617461D4647
:10533000DDF818803EE0681CD8B3FDF7D5F9A0EB86
:105340000800A84200D2A5BB2068406820F0E00019
:10535000216848606068B0F5827F0DD1A068B0F523
:10536000004F03D0A068B0F5806F05D120680068B9
:1053700020F0400021680860A06AB0F5005F0DD100
:1053800000BF2068006820F4005021680860206891
:10539000006840F400502168086000BF012084F8D4
:1053A000510000BF002084F8500000BF0320BDE87A
:1053B000F081FFE7206880683040B04201D10120D1
:1053C00000E00020B842B6D10020F0E7704710B5E9
:1053D000FDF790F910BD000000B593B0302107A88B
:1053E000FAF738FF142102A8FAF734FF00BF0020B3
:1053F00001902448006840F0805022490860084627
:10540000006800F08050019000BF00BF00BF002086
:1054100001901D48006840F480401B490860084620
:10542000006800F48040019000BF00BF0120079099
:105430000004089002200D9041050E9104210F9167
:10544000A8211091022111910721129107A8FEF7BE
:1054500043F908B1FBF78BFD0F2002900220039067
:10546000002004904FF4A05005904FF48050069017
:10547000052102A8FEF710F808B1FBF778FD13B07C
:1054800000BD000040380240007000400548006840
:1054900040F47000034908604FF000600149803912
:1054A0000860704788ED00E010B50248FEF794FFF1
:1054B00010BD00006805002010B50268294B984215
:1054C0000ED0B0F1804F0BD0274B984208D0274B1D
:1054D000984205D0264B984202D0264B984203D1E1
:1054E00022F070024B681A431E4B984220D0B0F154
:1054F000804F1DD01C4B98421AD01C4B984217D09D
:105500001B4B984214D01B4B984211D01A4B984217
:105510000ED01A4B98420BD0194B984208D0194B19
:10552000984205D0184B984202D0184B984203D1AC
:1055300022F44072CB681A4322F080034C6943EA9C
:10554000040202608B68C3620B688362054B984259
:1055500002D0084B984201D10B69036301234361D8
:1055600010BD0000000001400004004000080040A1
:10557000000C004000040140004001400044014094
:105580000048014000180040001C0040002000407E
:1055900030B50C46816821F47F4142EA032525435A
:1055A0002943816030BD0A46816821F0700142F0D4
:1055B000070319438160704730B5056A25F001057E
:1055C0000562026A4368846924F0700424F00304CD
:1055D0000D682C4322F002028D682A43104DA84228
:1055E00000D103E00F4DA84206D100BF22F008020F
:1055F000CD682A4322F00402094DA84202D0094D89
:10560000A84207D123F4807323F400734D692B4320
:105610008D692B43436084614D684563026230BDF0
:10562000000001400004014030B5056A25F0100576
:105630000562026A4368846924F4E04424F44074F7
:105640000D6844EA052422F020028D6842EA051222
:10565000124DA84200D103E0114DA84207D100BF6E
:1056600022F08002CD6842EA051222F040020B4D82
:10567000A84202D00A4DA84209D123F4806323F442
:1056800000634D6943EA85038D6943EA85034360FE
:1056900084614D688563026230BD000000000140F6
:1056A0000004014030B5056A25F480750562026A80
:1056B0004368C46924F0700424F003040D682C438B
:1056C00022F400728D6842EA0522124DA84200D1F0
:1056D00003E0114DA84207D100BF22F40062CD685B
:1056E00042EA052222F480620A4DA84202D00A4D05
:1056F000A84209D123F4805323F400534D6943EAAF
:1057000005138D6943EA05134360C4614D68C563A1
:10571000026230BD000001400004014030B5056A5E
:1057200025F480550562036A4468C26922F4E042A8
:1057300022F440720D6842EA052223F400538D687A
:1057400043EA0533084DA84202D0084DA84204D1CF
:1057500024F480444D6944EA85144460C2614D6874
:105760000564036230BD00000000014000040140F8
:105770002DE9F04105460C462868866826F070063B
:105780006068064326F0070620680643286886609E
:10579000606800F00F0100293BD10011082838D2C1
:1057A000DFE800F0333435360B272D04D4E903133A
:1057B000A2682868FFF7ECFE2CE02068052802D1DB
:1057C0000120BDE8F0812868D0F820802868006AB0
:1057D00020F00100296808622868876927F0F0072F
:1057E000206947EA0017286887612868C0F8208088
:1057F00010E02269A168286800F00FF80AE0226929
:10580000A168286800F01CF804E000BF00BF00BFDA
:1058100000E000BF00BF0020D3E730B50B461446C0
:10582000026A056A25F001050562816921F0F0012F
:1058300041EA041122F00A021A438161026230BD7A
:1058400030B50B461446056A25F0100505628169DE
:10585000026A21F4704141EA043122F0A00242EAD6
:1058600003128161026230BD2DE9F04104460D460C
:10587000D4F89062D4F89872D4F8900278B305EB1B
:10588000850104F1140000EB8100806808B305EB8A
:10589000850104F1140000EB8100C5EBC5028168AD
:1058A00007F13C0000EB82008068B1FBF0F200FBE6
:1058B000121070B9002105EB850204F1140000EB11
:1058C0008200816000231A462946204600F060FECF
:1058D00002E00020C6F814020020BDE8F081FFE7D6
:1058E0000220FAE770B504460E46D4F890523146CD
:1058F000204600F0FDFCC5F80C02D4F8900248B137
:10590000D5F80402D4F89412CA6805F503719047DB
:10591000002070BD0220FCE770B504460E4600254D
:105920008121204600F0EEFB0021E16201212046AA
:1059300000F0E8FB0021C4F858118221204600F055
:10594000E1FB00212164D4F8900250B1D4F8941204
:1059500048688047D4F8900202F05AFC0020C4F84E
:105960009002284670BD70B50546D5F89042D5F82E
:10597000940278B194F80002FF280BD094F8012229
:1059800094F80002D5F894128B6821469847FF20BE
:1059900084F80002002070BD01460A2008800148FA
:1059A00070470000CC0000200146432008800148D9
:1059B0007047000054010020014643200880014840
:1059C0007047000010010020014643200880014874
:1059D00070470000980100202DE9F04104460F4671
:1059E0000026207C88B94FF40073022281212046D2
:1059F00000F0DEFC0121E1624B020222204600F0B1
:105A0000D7FC0121C4F858110FE040230222812164
:105A1000204600F0CDFC0121E16240230222204615
:105A200000F0C6FC0121C4F858110823032282218A
:105A3000204600F0BDFC012121644FF4077002F004
:105A4000AFFDC4F89002D4F8900208B901261CE01A
:105A5000D4F89052D4F89412086880470020C5F812
:105A60001402C5F81802207C40B94FF400730121DC
:105A70002046D5F8042200F0B3FC06E040230121C3
:105A80002046D5F8042200F0ABFC3046BDE8F0819A
:105A900070B50446D4F89052D4F8900298B1207CA6
:105AA00040B94FF4007301212046D5F8042200F0DC
:105AB00097FC06E0402301212046D5F8042200F09F
:105AC0008FFC002070BD0220FCE70246022011B1CD
:105AD000C2F89412002070470246D2F89032C3F800
